S01400004430303033452D4C61625F352E73726563F4
S11300000C942E000C941E010C948D010C94FC0194
S11300100C946B020C94DA020C944B000C943E0981
S11300200C944B000C94EC080C9449030C94B80306
S11300300C9427040C9496040C9405050C947405F4
S11300400C94E3050C9452060C94C1060C943007EE
S11300500C949F070C940E080C947D0811241FBE69
S1130060CFEFD4E0DEBFCDBF11E0A0E0B1E0E2E429
S1130070F4E102C005900D92A630B107D9F724E04F
S1130080A6E0B1E001C01D92A935B207E1F70E94D4
S113009067000C941F0A0C9400001092C50082E6BD
S11300A08093C40088E98093C10086E08093C200F5
S11300B008958091C0008823E4F78091C6000895D4
S11300C09091C00095FFFCCF8093C60008950E94D4
S11300D04D000E9459000E946000FBCFCF93DF9334
S11300E000D0CDB7DEB79A838983809100019091C7
S11300F0010106960E94DE09892B59F489819A81AF
S1130100909301018093000161E070E006960E94E3
S1130110FE090F900F90DF91CF9108950F931F93D5
S1130120CF93DF93DC01CB01EB01E881F981C0E0DF
S1130130D0E004C0EF010190F081E02D309779F018
S1130140068117812085318516964D915D916D91BB
S11301507C91199740175107620773075CF7119652
S1130160FC93EE93209721F4FC01B183A08302C099
S1130170B983A883DF91CF911F910F910895DC017A
S1130180ED91FC911197309759F48FEF8093EC0027
S11301908093ED008093EE0081E083BF8895FCCFCF
S11301A0208131812D933C93CF010895FB0120815F
S11301B03181FC0131832083FB0191838083089585
S11301C0DC01ED91FC911197208131812D933C93B9
S11301D0CF010895CF93DF93E0910201F0910301E1
S11301E0C281D381E0910E01F0910F01309719F192
S11301F08091040190910501892BE9F0209769F021
S113020086819781A085B1854E815F8168857985D6
S1130210841B950BA60BB70B72F484E091E00E944B
S1130220E00062E071E00E94D600809102019091AA
S113023003010E946E00DF91CF9108951F920F92E7
S11302400FB60F9211240F931F932F933F934F9345
S11302505F936F937F938F939F93AF93BF93EF932A
S1130260FF938091060190910701AC01092E000CC7
S1130270660B770B9A011127002740918400509157
S1130280850060E070E0402B512B622B732B409370
S113029008015093090160930A0170930B01B09B0C
S11302A01AC00196092E000CAA0BBB0BBC015527E2
S11302B044278091840090918500A0E0B0E0842BD5
S11302C0952BA62BB72B8093080190930901A0933B
S11302D00A01B0930B01E091A801F091A9013097B4
S11302E039F060E070E0809110019091110109955E
S11302F00E94EA00FF91EF91BF91AF919F918F917E
S11303007F916F915F914F913F912F911F910F9129
S11303100F900FBE0F901F9018951F920F920FB65B
S11303200F9211240F931F932F933F934F935F9337
S11303306F937F938F939F93AF93BF93EF93FF93A9
S11303408091060190910701AC01092E000C660B07
S1130350770B9A0111270027409184005091850062
S113036060E070E0402B512B622B732B409308010B
S11303705093090160930A0170930B01B09B1AC05A
S11303800196092E000CAA0BBB0BBC015527442770
S11303908091840090918500A0E0B0E0842B952B9F
S11303A0A62BB72B8093080190930901A0930A010F
S11303B0B0930B01E091AA01F091AB01309739F0B1
S11303C061E070E0809112019091130109950E94FF
S11303D0EA00FF91EF91BF91AF919F918F917F912F
S11303E06F915F914F913F912F911F910F910F90BA
S11303F00FBE0F901F9018951F920F920FB60F9279
S113040011240F931F932F933F934F935F936F93F5
S11304107F938F939F93AF93BF93EF93FF938091B9
S1130420060190910701AC01092E000C660B770BB5
S11304309A0111270027409184005091850060E0C3
S113044070E0402B512B622B732B40930801509387
S1130450090160930A0170930B01B09B1AC00196C5
S1130460092E000CAA0BBB0BBC0155274427809115
S1130470840090918500A0E0B0E0842B952BA62BFE
S1130480B72B8093080190930901A0930A01B093BC
S11304900B01E091AC01F091AD01309739F062E0CD
S11304A070E0809114019091150109950E94EA0071
S11304B0FF91EF91BF91AF919F918F917F916F9138
S11304C05F914F913F912F911F910F910F900FBE0C
S11304D00F901F9018951F920F920FB60F92112430
S11304E00F931F932F933F934F935F936F937F9338
S11304F08F939F93AF93BF93EF93FF9380910601E4
S113050090910701AC01092E000C660B770B9A0140
S113051011270027409184005091850060E070E02D
S1130520402B512B622B732B4093080150930901EC
S113053060930A0170930B01B09B1AC00196092EB7
S1130540000CAA0BBB0BBC015527442780918400E7
S113055090918500A0E0B0E0842B952BA62BB72BBF
S11305608093080190930901A0930A01B0930B01B1
S1130570E091AE01F091AF01309739F063E070E0A3
S1130580809116019091170109950E94EA00FF914C
S1130590EF91BF91AF919F918F917F916F915F91F7
S11305A04F913F912F911F910F910F900FBE0F907C
S11305B01F9018951F920F920FB60F9211240F934C
S11305C01F932F933F934F935F936F937F938F93D7
S11305D09F93AF93BF93EF93FF9380910601909104
S11305E00701AC01092E000C660B770B9A01112749
S11305F00027409184005091850060E070E0402B1A
S1130600512B622B732B4093080150930901609383
S11306100A0170930B01B09B1AC00196092E000CBD
S1130620AA0BBB0BBC0155274427809184009091F1
S11306308500A0E0B0E0842B952BA62BB72B8093EC
S1130640080190930901A0930A01B0930B01E09172
S1130650B001F091B101309739F064E070E080911D
S113066018019091190109950E94EA00FF91EF91F8
S1130670BF91AF919F918F917F916F915F914F91B6
S11306803F912F911F910F910F900FBE0F901F90CC
S113069018951F920F920FB60F9211240F931F9368
S11306A02F933F934F935F936F937F938F939F9376
S11306B0AF93BF93EF93FF9380910601909107014D
S11306C0AC01092E000C660B770B9A011127002749
S11306D0409184005091850060E070E0402B512BE4
S11306E0622B732B409308015093090160930A0114
S11306F070930B01B09B1AC00196092E000CAA0B33
S1130700BB0BBC0155274427809184009091850040
S1130710A0E0B0E0842B952BA62BB72B8093080187
S113072090930901A0930A01B0930B01E091B201E7
S1130730F091B301309739F065E070E080911A01CF
S113074090911B0109950E94EA00FF91EF91BF91DE
S1130750AF919F918F917F916F915F914F913F9155
S11307602F911F910F910F900FBE0F901F9018950E
S11307701F920F920FB60F9211240F931F932F9372
S11307803F934F935F936F937F938F939F93AF9315
S1130790BF93EF93FF938091060190910701AC0101
S11307A0092E000C660B770B9A0111270027409144
S11307B084005091850060E070E0402B512B622B47
S11307C0732B409308015093090160930A017093BD
S11307D00B01B09B1AC00196092E000CAA0BBB0B8F
S11307E0BC01552744278091840090918500A0E0A6
S11307F0B0E0842B952BA62BB72B80930801909304
S11308000901A0930A01B0930B01E091B401F091A6
S1130810B501309739F066E070E080911C01909149
S11308201D0109950E94EA00FF91EF91BF91AF91DC
S11308309F918F917F916F915F914F913F912F91F4
S11308401F910F910F900FBE0F901F9018951F923C
S11308500F920FB60F9211240F931F932F933F9370
S11308604F935F936F937F938F939F93AF93BF93B4
S1130870EF93FF938091060190910701AC01092E3B
S1130880000C660B770B9A01112700274091840016
S11308905091850060E070E0402B512B622B732B4C
S11308A0409308015093090160930A0170930B016E
S11308B0B09B1AC00196092E000CAA0BBB0BBC01FD
S11308C0552744278091840090918500A0E0B0E0F2
S11308D0842B952BA62BB72B8093080190930901A9
S11308E0A0930A01B0930B01E091B601F091B70116
S11308F0309739F067E070E080911E0190911F01FC
S113090009950E94EA00FF91EF91BF91AF919F91E9
S11309108F917F916F915F914F913F912F911F9193
S11309200F910F900FBE0F901F9018951F920F926A
S11309300FB60F9211240F931F932F933F934F934E
S11309405F936F937F938F939F93AF93BF93EF9333
S1130950FF938091060190910701AC01092E000CD0
S1130960660B770B9A011127002740918400509160
S1130970850060E070E0402B512B622B732B409379
S113098008015093090160930A0170930B01B09B15
S11309901AC00196092E000CAA0BBB0BBC015527EB
S11309A044278091840090918500A0E0B0E0842BDE
S11309B0952BA62BB72B8093080190930901A09344
S11309C00A01B0930B01E091B801F091B90130979D
S11309D039F068E070E0809120019091210109953F
S11309E00E94EA00FF91EF91BF91AF919F918F9187
S11309F07F916F915F914F913F912F911F910F9133
S1130A000F900FBE0F901F9018951F920F920FB664
S1130A100F9211240F931F932F933F934F935F9340
S1130A206F937F938F939F93AF93BF93EF93FF93B2
S1130A308091060190910701AC01092E000C660B10
S1130A40770B9A011127002740918400509185006B
S1130A5060E070E0402B512B622B732B4093080114
S1130A605093090160930A0170930B01B09B1AC063
S1130A700196092E000CAA0BBB0BBC015527442779
S1130A808091840090918500A0E0B0E0842B952BA8
S1130A90A62BB72B8093080190930901A0930A0118
S1130AA0B0930B01E091BA01F091BB01309739F09A
S1130AB069E070E0809122019091230109950E94E0
S1130AC0EA00FF91EF91BF91AF919F918F917F9138
S1130AD06F915F914F913F912F911F910F910F90C3
S1130AE00FBE0F901F9018951F920F920FB60F9282
S1130AF011240F931F932F933F934F935F936F93FF
S1130B007F938F939F93AF93BF93EF93FF938091C2
S1130B10060190910701AC01092E000C660B770BBE
S1130B209A0111270027409184005091850060E0CC
S1130B3070E0402B512B622B732B40930801509390
S1130B40090160930A0170930B01B09B1AC00196CE
S1130B50092E000CAA0BBB0BBC015527442780911E
S1130B60840090918500A0E0B0E0842B952BA62B07
S1130B70B72B8093080190930901A0930A01B093C5
S1130B800B01E091BC01F091BD01309739F06AE0AE
S1130B9070E0809124019091250109950E94EA005A
S1130BA0FF91EF91BF91AF919F918F917F916F9141
S1130BB05F914F913F912F911F910F910F900FBE15
S1130BC00F901F9018951F920F920FB60F92112439
S1130BD00F931F932F933F934F935F936F937F9341
S1130BE08F939F93AF93BF93EF93FF9380910601ED
S1130BF090910701AC01092E000C660B770B9A014A
S1130C0011270027409184005091850060E070E036
S1130C10402B512B622B732B4093080150930901F5
S1130C2060930A0170930B01B09B1AC00196092EC0
S1130C30000CAA0BBB0BBC015527442780918400F0
S1130C4090918500A0E0B0E0842B952BA62BB72BC8
S1130C508093080190930901A0930A01B0930B01BA
S1130C60E091BE01F091BF01309739F06BE070E084
S1130C70809126019091270109950E94EA00FF9135
S1130C80EF91BF91AF919F918F917F916F915F9100
S1130C904F913F912F911F910F910F900FBE0F9085
S1130CA01F9018951F920F920FB60F9211240F9355
S1130CB01F932F933F934F935F936F937F938F93E0
S1130CC09F93AF93BF93EF93FF938091060190910D
S1130CD00701AC01092E000C660B770B9A01112752
S1130CE00027409184005091850060E070E0402B23
S1130CF0512B622B732B409308015093090160938D
S1130D000A0170930B01B09B1AC00196092E000CC6
S1130D10AA0BBB0BBC0155274427809184009091FA
S1130D208500A0E0B0E0842B952BA62BB72B8093F5
S1130D30080190930901A0930A01B0930B01E0917B
S1130D40C001F091C101309739F06CE070E08091FE
S1130D5028019091290109950E94EA00FF91EF91E1
S1130D60BF91AF919F918F917F916F915F914F91BF
S1130D703F912F911F910F910F900FBE0F901F90D5
S1130D8018951F920F920FB60F9211240F931F9371
S1130D902F933F934F935F936F937F938F939F937F
S1130DA0AF93BF93EF93FF93809106019091070156
S1130DB0AC01092E000C660B770B9A011127002752
S1130DC0409184005091850060E070E0402B512BED
S1130DD0622B732B409308015093090160930A011D
S1130DE070930B01B09B1AC00196092E000CAA0B3C
S1130DF0BB0BBC015527442780918400909185004A
S1130E00A0E0B0E0842B952BA62BB72B8093080190
S1130E1090930901A0930A01B0930B01E091C201E0
S1130E20F091C301309739F06DE070E080912A01B0
S1130E3090912B0109950E94EA00FF91EF91BF91D7
S1130E40AF919F918F917F916F915F914F913F915E
S1130E502F911F910F910F900FBE0F901F90189517
S1130E601F920F920FB60F9211240F931F932F937B
S1130E703F934F935F936F937F938F939F93AF931E
S1130E80BF93EF93FF938091060190910701AC010A
S1130E90092E000C660B770B9A011127002740914D
S1130EA084005091850060E070E0402B512B622B50
S1130EB0732B409308015093090160930A017093C6
S1130EC00B01B09B1AC00196092E000CAA0BBB0B98
S1130ED0BC01552744278091840090918500A0E0AF
S1130EE0B0E0842B952BA62BB72B8093080190930D
S1130EF00901A0930A01B0930B01E091C401F091A0
S1130F00C501309739F06EE070E080912C0190912A
S1130F102D0109950E94EA00FF91EF91BF91AF91D5
S1130F209F918F917F916F915F914F913F912F91FD
S1130F301F910F910F900FBE0F901F9018951F9245
S1130F400F920FB60F9211240F931F932F933F9379
S1130F504F935F936F937F938F939F93AF93BF93BD
S1130F60EF93FF938091060190910701AC01092E44
S1130F70000C660B770B9A0111270027409184001F
S1130F805091850060E070E0402B512B622B732B55
S1130F90409308015093090160930A0170930B0177
S1130FA0B09B1AC00196092E000CAA0BBB0BBC0106
S1130FB0552744278091840090918500A0E0B0E0FB
S1130FC0842B952BA62BB72B8093080190930901B2
S1130FD0A0930A01B0930B01E091C601F091C701FF
S1130FE0309739F06FE070E080912E0190912F01DD
S1130FF009950E94EA00FF91EF91BF91AF919F91F3
S11310008F917F916F915F914F913F912F911F919C
S11310100F910F900FBE0F901F9018951F920F9273
S11310200FB60F9211240F931F932F933F934F9357
S11310305F936F937F938F939F93AF93BF93EF933C
S1131040FF938091060190910701AC01092E000CD9
S1131050660B770B9A011127002740918400509169
S1131060850060E070E0402B512B622B732B409382
S113107008015093090160930A0170930B01B09B1E
S11310801AC00196092E000CAA0BBB0BBC015527F4
S113109044278091840090918500A0E0B0E0842BE7
S11310A0952BA62BB72B8093080190930901A0934D
S11310B00A01B0930B01E091C801F091C901309786
S11310C039F060E170E0809130019091310109952F
S11310D00E94EA00FF91EF91BF91AF919F918F9190
S11310E07F916F915F914F913F912F911F910F913C
S11310F00F900FBE0F901F9018951F920F920FB66E
S11311000F9211240F931F932F933F934F935F9349
S11311106F937F938F939F93AF93BF93EF93FF93BB
S11311208091060190910701AC01092E000C660B19
S1131130770B9A0111270027409184005091850074
S113114060E070E0402B512B622B732B409308011D
S11311505093090160930A0170930B01B09B1AC06C
S11311600196092E000CAA0BBB0BBC015527442782
S11311708091840090918500A0E0B0E0842B952BB1
S1131180A62BB72B8093080190930901A0930A0121
S1131190B0930B01E091CA01F091CB01309739F083
S11311A061E170E0809132019091330109950E94D0
S11311B0EA00FF91EF91BF91AF919F918F917F9141
S11311C06F915F914F913F912F911F910F910F90CC
S11311D00FBE0F901F9018951F920F920FB60F928B
S11311E011242F933F934F935F936F937F938F9328
S11311F09F93EF93FF9380910601909107010196CD
S11312009093070180930601E0910C01F0910D0188
S1131210309701F142815381648175818617970764
S1131220C9F4CA012091840030918500421B530BFC
S11312304130510529F480918400909185000196F4
S11312409093890080938800EFE6F0E080818260CB
S1131250808305C0EFE6F0E080818D7F8083FF917D
S1131260EF919F918F917F916F915F914F913F91FA
S11312702F910F900FBE0F901F9018951F920F92F1
S11312800FB60F921124CF92DF92EF92FF922F9319
S11312903F934F935F936F937F938F939F93AF93FA
S11312A0BF93EF93FF9380910601909107016C0126
S11312B0092E000CEE08FF087601DD24CC244091B1
S11312C084005091850060E070E0C42AD52AE62AA3
S11312D0F72AB09B1EC06C012FEFC21AD20A0D2C44
S11312E0000CEE08FF08D60199278827C0908400D7
S11312F0D0908500E12CF12CC82AD92AEA2AFB2AAD
S113130008C08CE091E00E94BF006EE071E00E9492
S11313108E00E0910C01F0910D01309769F082810B
S11313209381A481B5818C199D09AE09BF09181652
S113133019061A061B062CF7309721F18281938136
S1131340A481B58120910601309107012A173B073A
S1131350C9F49C014091840050918500841B950B35
S1131360019731F420918400309185002F5F3F4F25
S11313703093890020938800EFE6F0E0808182605A
S1131380808305C0EFE6F0E080818D7F80830E943A
S1131390EA00FF91EF91BF91AF919F918F917F915F
S11313A06F915F914F913F912F91FF90EF90DF905C
S11313B0CF900F900FBE0F901F901895DC012D92C7
S11313C03D924D925D926D927D928D929D92AD92E1
S11313D0BD92CD92DD92ED92FD920D931D93CD932E
S11313E0DD93FF91EF918DB78D938EB78D938FB76A
S11313F08D93ED93FD93882799270994DC01CB0104
S113140081309105811D2D903D904D905D906D90A2
S11314107D908D909D90AD90BD90CD90DD90ED90A0
S1131420FD900D911D91CD91DD91ED91FD910D906A
S1131430F894FEBF0FBEEDBFED91FD910994F894B1
S1051440FFCFD8
S1091442CC01CC013401D1
S9030000FC
