:100000000C942E000C947B050C94EA050C94590674
:100010000C94C8060C9437070C944B000C94A20D5A
:100020000C944B000C94500D0C94A6070C941508DE
:100030000C9484080C94F3080C9462090C94D10974
:100040000C94400A0C94AF0A0C941E0B0C948D0B6C
:100050000C94FC0B0C946B0C0C94DA0C11241FBE4A
:10006000CFEFD4E0DEBFCDBF11E0A0E0B1E0E0E132
:10007000F2E202C005900D92A433B107D9F724E053
:10008000A4E3B1E001C01D92AB38B207E1F70E94D2
:1000900082030C9406110C9400008091C00085FF2F
:1000A000FCCF6093C6000895CF92DF92EF92FF924B
:1000B0000F931F93CF93DF93EC018C859D850E8169
:1000C0001F816C01CC0CDD1C880F991F880F991FB4
:1000D000880F991FC80ED91E0F2EF5E5EF2EF3E0FD
:1000E000FF2EF02D20E030E0A90160E070E0CB01B0
:1000F0000E94420E8E859F856C01CC0CDD1C880F02
:10010000991F880F991F880F991FC80ED91E0E813D
:100110001F8182E0C80ED11C20E030E0A90160E020
:1001200070E0CB010E94420E8A859B856C01CC0C4D
:10013000DD1C880F991F880F991F880F991FC80E03
:10014000D91E0E811F8184E0C80ED11C20E030E052
:10015000A90160E070E0CB010E94420EDF91CF91D7
:100160001F910F91FF90EF90DF90CF900895CF9265
:10017000DF92EF92FF920F931F93FC012685378544
:100180002150310937872687C12CD12C0F2EF4E559
:10019000EF2EF0E0FF2EF02D8C0120E030E0A901E1
:1001A00060E070E0CB010E94420E1F910F91FF9022
:1001B000EF90DF90CF900895CF92DF92EF92FF9271
:1001C0000F931F93CF93DF93EC0188859985892B3B
:1001D00009F46BC08C859D85892BF1F088899989FC
:1001E00085309105CCF40196998B888B0C811D810B
:1001F0000F2EF9E0CF2ED12CF02D0F2EFDE4EF2E97
:10020000F0E0FF2EF02D20E030E0A90160E070E08A
:10021000CB010E94420EB5C08A859B85892B21F0B7
:100220008E859F85892B41F08E859F85892BF1F4E2
:10023000888999890597D4F0198A188A19861886A9
:100240000C811D810F2EF6E0CF2ED12CF02D0F2E1C
:10025000FDE4EF2EF0E0FF2EF02D20E030E0A901CC
:1002600060E070E0CB010E94420E8BC080914001A3
:1002700090914101009711F00E942510C12CD12CC2
:100280000F2EFCEDEF2EF0E0FF2EF02D8E0120E082
:1002900030E0A9016AE572E682E090E00E94420E39
:1002A00090934101809340016CC08A859B85892B86
:1002B000F1F08889998985309105CCF40196998B64
:1002C000888B0C811D810F2EF6E0CF2ED12CF02DC6
:1002D0000F2EFDE4EF2EF0E0FF2EF02D20E030E0B9
:1002E000A90160E070E0CB010E94420E4AC08C85FB
:1002F0009D85892B21F08E859F85892B41F08E85E8
:100300009F85892B01F5888999890597E4F0198AD9
:10031000188A81E090E0998788870C811D810F2ED3
:10032000F9E0CF2ED12CF02D0F2EFDE4EF2EF0E0D2
:10033000FF2EF02D20E030E0A90160E070E0CB015D
:100340000E94420E1EC080913E0190913F01009795
:1003500011F00E942510C12CD12C0F2EFCEDEF2E98
:10036000F0E0FF2EF02D8E0120E030E0A9016AE5DB
:1003700072E682E090E00E94420E90933F018093EB
:100380003E01DF91CF911F910F91FF90EF90DF9091
:10039000CF900895AF92BF92CF92DF92EF92FF92EB
:1003A0000F931F93CF93DF93EC015B0161307105D5
:1003B00029F48C859D8501969D878C8782E0A816FF
:1003C000B104E1F48C859D8501979D878C878E858E
:1003D0009F8501969F878E87C12CD12C0F2EF7EB1E
:1003E000EF2EF0E0FF2EF02D8E0120E030E0A9018D
:1003F0006AE572E682E090E00E94420E84E0A81670
:10040000B10429F48A859B8501969B878A8788E0B9
:10041000A816B104E1F48A859B8501979B878A879A
:100420008E859F8501969F878E87C12CD12C0F2E9C
:10043000F7EBEF2EF0E0FF2EF02D8E0120E030E004
:10044000A9016AE572E682E090E00E94420EC12CAA
:10045000D12C0F2EF4E5EF2EF0E0FF2EF02D8E01C3
:1004600020E030E0A90160E070E0CB010E94420E84
:100470000F2EFCEDEF2EF0E0FF2EF02D20E030E00F
:10048000A90160E070E0CB010E94420EDF91CF91A4
:100490001F910F91FF90EF90DF90CF90BF90AF90A2
:1004A0000895E1E6F0E080E8808310828FE0809399
:1004B000E70087EB8093E50087E08093E60080EC1F
:1004C0008093E4001092C50083E38093C40088E920
:1004D0008093C1000895CF92DF92EF92FF920F9325
:1004E0001F93C090C600FC0104811581D12C0F2EF2
:1004F000FAECEF2EF1E0FF2EF02D20E030E0A90124
:1005000060E070E0CB010E94420E80E090E01F911D
:100510000F91FF90EF90DF90CF900895CF93DF93EE
:1005200000D000D0CDB7DEB7DA0190ED980F9A3049
:1005300080F420E030E028C0FC01E85FFE4F20A5F9
:10054000E1E0F0E0EC0FFD1FE80FF91F20830196BA
:1005500002C080E090E08430910574F318C0E82F69
:10056000F0E0F097EE0FFF1FEE0FFF1FE85FFE4F6A
:10057000E20FF31F9081E1E0F0E0EC0FFD1FE20FCE
:10058000F31F90832F5F3F4F2430310544F36111F7
:100590000DC011C0E1E0F0E0EC0FFD1FE80FF91F06
:1005A00020812295207F2083019602C080E090E088
:1005B000843091057CF39C918981892B8C931596CD
:1005C0009C9115978A81892B15968C9315971A966D
:1005D0009C911A978B81892B1A968C931A971F9648
:1005E0009C911F978C81892B1F968C930F900F9055
:1005F0000F900F90DF91CF910895882391F0FB0128
:1006000080818970808385E090E007C0FB01E80F5E
:10061000F91F20812F702083059684319105B4F352
:100620000895FB0180818079808385E090E007C098
:10063000FB01E80FF91F2081207F2083059684317C
:100640009105B4F308951F93CF93DF93182F60FDA6
:1006500014C0AB01772314F44F5F5F4F5595479556
:10066000EA01C451DF4FBE0180E00E94FD02AE01ED
:1006700060E0812F0E948E0214C061507109AB01AD
:1006800012F44F5F5F4F55954795EA01C451DF4F14
:10069000BE0181E00E94FD02AE0161E0812F0E9457
:1006A0008E02DF91CF911F910895EF92FF920F93E9
:1006B0001F93CF93DF93CB010AE010E0B8010E94B3
:1006C0009D107B01EC01CB0164E670E00E949D105F
:1006D000B8010E949D10862FBE01805D0E942303F9
:1006E0002196C701B8010E949D10BE01805D0E9445
:1006F000230380E090E0DF91CF911F910F91FF9055
:10070000EF900895CF93DF93CDB7DEB7A0970FB6E4
:10071000F894DEBF0FBECDBF0E9451021A8219822B
:100720001C821B821E821D8218861F821A861986D1
:100730001C861B86CE0105969E878D870497988B15
:100740008F8781E090E09A8B898B1C8A1B8A1E8A96
:100750001D8A188E1F8A1A8E198E1C8E1B8E1E8E55
:100760001D8ECE01099698A38F8F48E06BE672E04C
:1007700042960E946B1040E050E060E070E080E044
:1007800090E00E948610A0960FB6F894DEBF0FBED0
:10079000CDBFDF91CF910895DB01ED91FC91A0E0F9
:1007A000B0E004C0DF010190F081E02D309719F036
:1007B000E817F907B9F7309789F0109739F0808179
:1007C00091818D939C9381E090E008958081918147
:1007D000FB019183808381E090E0089580E090E0C8
:1007E0000895CF93DF9300D000D0CDB7DEB780E07F
:1007F00090E018C0AC014F5F5F4F9A01229532958F
:10080000307F3227207F3227255E3D4F829592959B
:10081000907F9827807F9827FC01E55EFD4F31830C
:100820002083CA018E3091052CF31092FC021092A5
:10083000FB0280E090E015C0AC014F5F5F4F6DE1BF
:10084000649F9001659F300D11242A593E4F689F87
:10085000F001699FF00D1124EA59FE4F3183208386
:10086000CA018330910544F31092BE011092BD017C
:100870001A82198232C02DE149815A81249FC00118
:10088000259F900D1124FC01E459FE4FFC83EB835E
:10089000CF010E94C51020E649815A81249FC001E2
:1008A000259F900D112489599C4FEB81FC81918BE0
:1008B000808B938B828B8DEC9FE0968B858B8DE16B
:1008C000849FF001859FF00D1124EA59FE4F158297
:1008D00014824F5F5F4F5A83498329813A812430C4
:1008E00031054CF2EEEFF1E0118210821582148294
:1008F00013821282E1E6F0E080E880831082109299
:1009000085001092840084E08093810081E08093D0
:100910006F000F900F900F900F90DF91CF9108957F
:10092000CF93DF9300D0CDB7DEB79A8389838091D0
:1009300000019091010106960E94C510892B59F47F
:1009400089819A81909301018093000161E070E0B8
:1009500006960E94E5100F900F90DF91CF910895B9
:100960000F931F93CF93DF93DC01CB01EB01E88161
:10097000F981C0E0D0E004C0EF010190F081E02DEA
:10098000309779F0068117812085318516964D9133
:100990005D916D917C91199740175107620773071C
:1009A0005CF71196FC93EE93209721F4FC01B18340
:1009B000A08302C0B983A883DF91CF911F910F91CB
:1009C00008950F931F93CF93DF93DC01CB01EB01CD
:1009D000E881F981C0E0D0E004C0EF010190F0812E
:1009E000E02D309779F002811381248135811296B0
:1009F0004D915D916D917C9115974017510762075C
:100A000073075CF71196FC93EE93209721F4FC0199
:100A1000B183A08302C0B983A883DF91CF911F91D6
:100A20000F910895DC01ED91FC911197309759F4E5
:100A30008FEF8093EC008093ED008093EE0081E0D7
:100A400083BF8895FCCF208131812D933C93CF01CA
:100A50000895FB0120813181FC0131832083FB015A
:100A6000918380830895FB0120813181FC013183D2
:100A70002083FB01918380830895DC01ED91FC913B
:100A80001197208131812D933C93CF010895CF930D
:100A9000DF93E0910201F0910301C281D381E091E3
:100AA0003C01F0913D01309719F180910401909142
:100AB0000501892BE9F0209769F086819781A0854F
:100AC000B1854E815F8168857985841B950BA60B66
:100AD000B70B72F484E091E00E943D0562E071E0A2
:100AE0000E94330580910201909103010E949004BD
:100AF000DF91CF9108951F920F920FB60F9211249C
:100B00000F931F932F933F934F935F936F937F9315
:100B10008F939F93AF93BF93EF93FF938091340193
:100B200090913501AC01092E000C660B770B9A01F0
:100B300011270027409184005091850060E070E00B
:100B4000402B512B622B732B40933601509337016E
:100B50006093380170933901B09B1AC00196092E39
:100B6000000CAA0BBB0BBC015527442780918400C5
:100B700090918500A0E0B0E0842B952BA62BB72B9D
:100B80008093360190933701A0933801B0933901D7
:100B9000E091DA01F091DB01309739F060E070E02C
:100BA000809142019091430109950E944705FF9170
:100BB000EF91BF91AF919F918F917F916F915F91D5
:100BC0004F913F912F911F910F910F900FBE0F905A
:100BD0001F9018951F920F920FB60F9211240F932A
:100BE0001F932F933F934F935F936F937F938F93B5
:100BF0009F93AF93BF93EF93FF93809134019091B4
:100C00003501AC01092E000C660B770B9A011127F8
:100C10000027409184005091850060E070E0402BF7
:100C2000512B622B732B4093360150933701609305
:100C3000380170933901B09B1AC00196092E000C3F
:100C4000AA0BBB0BBC0155274427809184009091CF
:100C50008500A0E0B0E0842B952BA62BB72B8093CA
:100C6000360190933701A0933801B0933901E09198
:100C7000DC01F091DD01309739F061E070E08091A6
:100C800044019091450109950E944705FF91EF911C
:100C9000BF91AF919F918F917F916F915F914F9194
:100CA0003F912F911F910F910F900FBE0F901F90AA
:100CB00018951F920F920FB60F9211240F931F9346
:100CC0002F933F934F935F936F937F938F939F9354
:100CD000AF93BF93EF93FF938091340190913501CF
:100CE000AC01092E000C660B770B9A011127002727
:100CF000409184005091850060E070E0402B512BC2
:100D0000622B732B40933601509337016093380167
:100D100070933901B09B1AC00196092E000CAA0BE2
:100D2000BB0BBC015527442780918400909185001E
:100D3000A0E0B0E0842B952BA62BB72B8093360137
:100D400090933701A0933801B0933901E091DE010F
:100D5000F091DF01309739F062E070E08091460158
:100D60009091470109950E944705FF91EF91BF912E
:100D7000AF919F918F917F916F915F914F913F9133
:100D80002F911F910F910F900FBE0F901F901895EC
:100D90001F920F920FB60F9211240F931F932F9350
:100DA0003F934F935F936F937F938F939F93AF93F3
:100DB000BF93EF93FF938091340190913501AC0183
:100DC000092E000C660B770B9A0111270027409122
:100DD00084005091850060E070E0402B512B622B25
:100DE000732B409336015093370160933801709311
:100DF0003901B09B1AC00196092E000CAA0BBB0B3F
:100E0000BC01552744278091840090918500A0E083
:100E1000B0E0842B952BA62BB72B809336019093B3
:100E20003701A0933801B0933901E091E001F091CE
:100E3000E101309739F063E070E0809148019091D2
:100E4000490109950E944705FF91EF91BF91AF912C
:100E50009F918F917F916F915F914F913F912F91D2
:100E60001F910F910F900FBE0F901F9018951F921A
:100E70000F920FB60F9211240F931F932F933F934E
:100E80004F935F936F937F938F939F93AF93BF9392
:100E9000EF93FF938091340190913501AC01092EBD
:100EA000000C660B770B9A011127002740918400F4
:100EB0005091850060E070E0402B512B622B732B2A
:100EC0004093360150933701609338017093390194
:100ED000B09B1AC00196092E000CAA0BBB0BBC01DB
:100EE000552744278091840090918500A0E0B0E0D0
:100EF000842B952BA62BB72B80933601909337012B
:100F0000A0933801B0933901E091E201F091E3013F
:100F1000309739F064E070E080914A0190914B0184
:100F200009950E944705FF91EF91BF91AF919F9165
:100F30008F917F916F915F914F913F912F911F9171
:100F40000F910F900FBE0F901F9018951F920F9248
:100F50000FB60F9211240F931F932F933F934F932C
:100F60005F936F937F938F939F93AF93BF93EF9311
:100F7000FF938091340190913501AC01092E000C52
:100F8000660B770B9A01112700274091840050913E
:100F9000850060E070E0402B512B622B732B409357
:100FA0003601509337016093380170933901B09B3B
:100FB0001AC00196092E000CAA0BBB0BBC015527C9
:100FC00044278091840090918500A0E0B0E0842BBC
:100FD000952BA62BB72B8093360190933701A093C6
:100FE0003801B0933901E091E401F091E5013097C7
:100FF00039F065E070E080914C0190914D010995C8
:101000000E944705FF91EF91BF91AF919F918F9102
:101010007F916F915F914F913F912F911F910F9110
:101020000F900FBE0F901F9018951F920F920FB642
:101030000F9211240F931F932F933F934F935F931E
:101040006F937F938F939F93AF93BF93EF93FF9390
:101050008091340190913501AC01092E000C660B92
:10106000770B9A0111270027409184005091850049
:1010700060E070E0402B512B622B732B40933601C4
:10108000509337016093380170933901B09B1AC0B7
:101090000196092E000CAA0BBB0BBC015527442757
:1010A0008091840090918500A0E0B0E0842B952B86
:1010B000A62BB72B8093360190933701A09338016C
:1010C000B0933901E091E601F091E701309739F0F2
:1010D00066E070E080914E0190914F0109950E9469
:1010E0004705FF91EF91BF91AF919F918F917F91B4
:1010F0006F915F914F913F912F911F910F910F90A1
:101100000FBE0F901F9018951F920F920FB60F925F
:1011100011240F931F932F933F934F935F936F93DC
:101120007F938F939F93AF93BF93EF93FF938091A0
:10113000340190913501AC01092E000C660B770B40
:101140009A0111270027409184005091850060E0AA
:1011500070E0402B512B622B732B40933601509340
:1011600037016093380170933901B09B1AC0019622
:10117000092E000CAA0BBB0BBC01552744278091FC
:10118000840090918500A0E0B0E0842B952BA62BE5
:10119000B72B8093360190933701A0933801B09319
:1011A0003901E091E801F091E901309739F067E009
:1011B00070E0809150019091510109950E9447057E
:1011C000FF91EF91BF91AF919F918F917F916F911F
:1011D0005F914F913F912F911F910F910F900FBEF3
:1011E0000F901F9018951F920F920FB60F92112417
:1011F0000F931F932F933F934F935F936F937F931F
:101200008F939F93AF93BF93EF93FF93809134019C
:1012100090913501AC01092E000C660B770B9A01F9
:1012200011270027409184005091850060E070E014
:10123000402B512B622B732B409336015093370177
:101240006093380170933901B09B1AC00196092E42
:10125000000CAA0BBB0BBC015527442780918400CE
:1012600090918500A0E0B0E0842B952BA62BB72BA6
:101270008093360190933701A0933801B0933901E0
:10128000E091EA01F091EB01309739F068E070E00D
:10129000809152019091530109950E944705FF9159
:1012A000EF91BF91AF919F918F917F916F915F91DE
:1012B0004F913F912F911F910F910F900FBE0F9063
:1012C0001F9018951F920F920FB60F9211240F9333
:1012D0001F932F933F934F935F936F937F938F93BE
:1012E0009F93AF93BF93EF93FF93809134019091BD
:1012F0003501AC01092E000C660B770B9A01112702
:101300000027409184005091850060E070E0402B00
:10131000512B622B732B409336015093370160930E
:10132000380170933901B09B1AC00196092E000C48
:10133000AA0BBB0BBC0155274427809184009091D8
:101340008500A0E0B0E0842B952BA62BB72B8093D3
:10135000360190933701A0933801B0933901E091A1
:10136000EC01F091ED01309739F069E070E0809187
:1013700054019091550109950E944705FF91EF9105
:10138000BF91AF919F918F917F916F915F914F919D
:101390003F912F911F910F910F900FBE0F901F90B3
:1013A00018951F920F920FB60F9211240F931F934F
:1013B0002F933F934F935F936F937F938F939F935D
:1013C000AF93BF93EF93FF938091340190913501D8
:1013D000AC01092E000C660B770B9A011127002730
:1013E000409184005091850060E070E0402B512BCB
:1013F000622B732B40933601509337016093380171
:1014000070933901B09B1AC00196092E000CAA0BEB
:10141000BB0BBC0155274427809184009091850027
:10142000A0E0B0E0842B952BA62BB72B8093360140
:1014300090933701A0933801B0933901E091EE0108
:10144000F091EF01309739F06AE070E08091560139
:101450009091570109950E944705FF91EF91BF9127
:10146000AF919F918F917F916F915F914F913F913C
:101470002F911F910F910F900FBE0F901F901895F5
:101480001F920F920FB60F9211240F931F932F9359
:101490003F934F935F936F937F938F939F93AF93FC
:1014A000BF93EF93FF938091340190913501AC018C
:1014B000092E000C660B770B9A011127002740912B
:1014C00084005091850060E070E0402B512B622B2E
:1014D000732B40933601509337016093380170931A
:1014E0003901B09B1AC00196092E000CAA0BBB0B48
:1014F000BC01552744278091840090918500A0E08D
:10150000B0E0842B952BA62BB72B809336019093BC
:101510003701A0933801B0933901E091F001F091C7
:10152000F101309739F06BE070E0809158019091B3
:10153000590109950E944705FF91EF91BF91AF9125
:101540009F918F917F916F915F914F913F912F91DB
:101550001F910F910F900FBE0F901F9018951F9223
:101560000F920FB60F9211240F931F932F933F9357
:101570004F935F936F937F938F939F93AF93BF939B
:10158000EF93FF938091340190913501AC01092EC6
:10159000000C660B770B9A011127002740918400FD
:1015A0005091850060E070E0402B512B622B732B33
:1015B000409336015093370160933801709339019D
:1015C000B09B1AC00196092E000CAA0BBB0BBC01E4
:1015D000552744278091840090918500A0E0B0E0D9
:1015E000842B952BA62BB72B809336019093370134
:1015F000A0933801B0933901E091F201F091F30129
:10160000309739F06CE070E080915A0190915B0165
:1016100009950E944705FF91EF91BF91AF919F916E
:101620008F917F916F915F914F913F912F911F917A
:101630000F910F900FBE0F901F9018951F920F9251
:101640000FB60F9211240F931F932F933F934F9335
:101650005F936F937F938F939F93AF93BF93EF931A
:10166000FF938091340190913501AC01092E000C5B
:10167000660B770B9A011127002740918400509147
:10168000850060E070E0402B512B622B732B409360
:101690003601509337016093380170933901B09B44
:1016A0001AC00196092E000CAA0BBB0BBC015527D2
:1016B00044278091840090918500A0E0B0E0842BC5
:1016C000952BA62BB72B8093360190933701A093CF
:1016D0003801B0933901E091F401F091F5013097B0
:1016E00039F06DE070E080915C0190915D010995A9
:1016F0000E944705FF91EF91BF91AF919F918F910C
:101700007F916F915F914F913F912F911F910F9119
:101710000F900FBE0F901F9018951F920F920FB64B
:101720000F9211240F931F932F933F934F935F9327
:101730006F937F938F939F93AF93BF93EF93FF9399
:101740008091340190913501AC01092E000C660B9B
:10175000770B9A0111270027409184005091850052
:1017600060E070E0402B512B622B732B40933601CD
:10177000509337016093380170933901B09B1AC0C0
:101780000196092E000CAA0BBB0BBC015527442760
:101790008091840090918500A0E0B0E0842B952B8F
:1017A000A62BB72B8093360190933701A093380175
:1017B000B0933901E091F601F091F701309739F0DB
:1017C0006EE070E080915E0190915F0109950E944A
:1017D0004705FF91EF91BF91AF919F918F917F91BD
:1017E0006F915F914F913F912F911F910F910F90AA
:1017F0000FBE0F901F9018951F920F920FB60F9269
:1018000011240F931F932F933F934F935F936F93E5
:101810007F938F939F93AF93BF93EF93FF938091A9
:10182000340190913501AC01092E000C660B770B49
:101830009A0111270027409184005091850060E0B3
:1018400070E0402B512B622B732B40933601509349
:1018500037016093380170933901B09B1AC001962B
:10186000092E000CAA0BBB0BBC0155274427809105
:10187000840090918500A0E0B0E0842B952BA62BEE
:10188000B72B8093360190933701A0933801B09322
:101890003901E091F801F091F901309739F06FE0EA
:1018A00070E0809160019091610109950E94470567
:1018B000FF91EF91BF91AF919F918F917F916F9128
:1018C0005F914F913F912F911F910F910F900FBEFC
:1018D0000F901F9018951F920F920FB60F92112420
:1018E0000F931F932F933F934F935F936F937F9328
:1018F0008F939F93AF93BF93EF93FF9380913401A6
:1019000090913501AC01092E000C660B770B9A0102
:1019100011270027409184005091850060E070E01D
:10192000402B512B622B732B409336015093370180
:101930006093380170933901B09B1AC00196092E4B
:10194000000CAA0BBB0BBC015527442780918400D7
:1019500090918500A0E0B0E0842B952BA62BB72BAF
:101960008093360190933701A0933801B0933901E9
:10197000E091FA01F091FB01309739F060E170E0FD
:10198000809162019091630109950E944705FF9142
:10199000EF91BF91AF919F918F917F916F915F91E7
:1019A0004F913F912F911F910F910F900FBE0F906C
:1019B0001F9018951F920F920FB60F9211240F933C
:1019C0001F932F933F934F935F936F937F938F93C7
:1019D0009F93AF93BF93EF93FF93809134019091C6
:1019E0003501AC01092E000C660B770B9A0111270B
:1019F0000027409184005091850060E070E0402B0A
:101A0000512B622B732B4093360150933701609317
:101A1000380170933901B09B1AC00196092E000C51
:101A2000AA0BBB0BBC0155274427809184009091E1
:101A30008500A0E0B0E0842B952BA62BB72B8093DC
:101A4000360190933701A0933801B0933901E091AA
:101A5000FC01F091FD01309739F061E170E0809177
:101A600064019091650109950E944705FF91EF91EE
:101A7000BF91AF919F918F917F916F915F914F91A6
:101A80003F912F911F910F910F900FBE0F901F90BC
:101A900018950E944705789481E083BF8895FCCF14
:101AA0001F920F920FB60F9211242F933F934F93D3
:101AB0005F936F937F938F939F93EF93FF938091A7
:101AC0003401909135010196909335018093340152
:101AD000E0913A01F0913B01309701F1428153814D
:101AE0006481758186179707C9F4CA012091840023
:101AF00030918500421B530B4130510529F48091F0
:101B000084009091850001969093890080938800CD
:101B1000EFE6F0E080818260808305C0EFE6F0E0D0
:101B200080818D7F8083FF91EF919F918F917F9135
:101B30006F915F914F913F912F910F900FBE0F903A
:101B40001F9018951F920F920FB60F921124CF92EB
:101B5000DF92EF92FF922F933F934F935F936F9398
:101B60007F938F939F93AF93BF93EF93FF93809156
:101B70003401909135016C01092E000CEE08FF082C
:101B80007601DD24CC24409184005091850060E0F2
:101B900070E0C42AD52AE62AF72AB09B1EC06C0141
:101BA0002FEFC21AD20A0D2C000CEE08FF08D60146
:101BB00099278827C0908400D0908500E12CF12CD3
:101BC000C82AD92AEA2AFB2A08C08AE391E00E949F
:101BD00012056CE371E00E94B004E0913A01F091CB
:101BE0003B01309769F082819381A481B5818C1982
:101BF0009D09AE09BF09181619061A061B062CF70F
:101C0000309721F182819381A481B58120913401A3
:101C1000309135012A173B07C9F49C01409184009B
:101C200050918500841B950B019731F4209184001D
:101C3000309185002F5F3F4F3093890020938800BB
:101C4000EFE6F0E080818260808305C0EFE6F0E09F
:101C500080818D7F80830E944705FF91EF91BF9126
:101C6000AF919F918F917F916F915F914F913F9134
:101C70002F91FF90EF90DF90CF900F900FBE0F90BD
:101C80001F9018953F924F925F926F927F928F9222
:101C90009F92AF92BF92CF92DF92EF92FF920F93FB
:101CA0001F93CF93DF932B013C0149015A018FB75A
:101CB0008078382EF89486E091E00E941205EC01BD
:101CC0001B870A87FD86EC86DF86CE86332061F08F
:101CD000E0910001F09101010280F381E02D828109
:101CE0009381A481B58108C080913601909137011C
:101CF000A0913801B0913901480E591E6A1E7B1E11
:101D00004A825B826C827D82181419041A041B04B7
:101D100044F00F2E88248A94982CA82CFFE7BF2E1D
:101D2000F02D840C951CA61CB71C8E829F82A88661
:101D3000B9862091340130913501C901032E000C80
:101D4000AA0BBB0BDC019927882740918400509196
:101D5000850060E070E0842B952BA62BB72BB09B01
:101D600013C0C9010196092E000CAA0BBB0BDC01A4
:101D700099278827409184005091850060E070E0A9
:101D8000842B952BA62BB72B481A590A6A0A7B0A73
:101D90001414150416041704ACF56AE371E0CE01BF
:101DA0000E94E104E0913A01F0913B01309721F16A
:101DB00082819381A481B5812091340130913501D4
:101DC0002A173B07C9F49C0140918400509185007B
:101DD000841B950B019731F420918400309185008C
:101DE0002F5F3F4F3093890020938800EFE6F0E0AB
:101DF00080818260808339C0EFE6F0E080818D7F52
:101E0000808333C06CE371E0CE010E94B0043320C4
:101E100061F18091040190910501892B31F1E091EC
:101E20003C01F0913D0186819781A085B185E091CB
:101E30000201F09103010280F381E02D4681578178
:101E400060857185841B950BA60BB70B72F484E03B
:101E500091E00E943D0562E071E00E9433058091AF
:101E60000201909103010E949004332009F07894BC
:101E7000CE01DF91CF911F910F91FF90EF90DF90F6
:101E8000CF90BF90AF909F908F907F906F905F901A
:101E90004F903F900895CF92DF92EF92FF920F9371
:101EA0001F93CF93DF93EC017B016A011FB710787A
:101EB000F894A881B981109719F435C0A081B18137
:101EC0001496ED91FC9115973097C1F72091000180
:101ED00030910101A217B30711F0111107C01123AE
:101EE00009F44AC078948FEF9FEF4EC08A819B819E
:101EF000009719F0FC01158214823B832A83F901B3
:101F0000D583C483CD010E949004E0910001F0913B
:101F1000010182819381892B31F4112381F178941D
:101F200080E090E031C0809100019091010199839F
:101F30008883112329F08A819B81019709F0789485
:101F4000B601CE01F7010995F82E092F8FB7F89445
:101F5000198218828A819B818230910538F01B8218
:101F60001A82FC01158214820E949004112351F000
:101F700078948F2D902F08C08FEF9FEF05C080E0E1
:101F800090E002C08F2D902FDF91CF911F910F9184
:101F9000FF90EF90DF90CF90089500910001109195
:101FA00001018CE391E00E941205EC01F80193839A
:101FB000828378946C857D854E855F858A859B8537
:101FC0000E944B0F8FB7F89466E071E0CE010E943B
:101FD0002905E0910201F09103010190F081E02DCB
:101FE000C281D381E0913C01F0913D013097A1F095
:101FF000209799F286819781A085B1854E815F8176
:1020000068857985841B950BA60BB70B18161906E6
:102010001A061B060CF0C1CF82E091E00E943D053C
:1020200064E071E00E943305A0910201B0910301C8
:1020300002C0A081B1811496ED91FC911597309763
:10204000C1F7CD010E949004A8CF1F93CF93DF93D7
:10205000EC011FB71078F8946AE371E00E94CC039A
:10206000892B39F46CE371E0CE010E94CC03892BFB
:1020700031F066E071E0CE010E94290525C0E091B3
:102080000201F09103011EC08091000190910101B5
:10209000E817F907A1F082819381C817D90779F46D
:1020A000248135818A859B852817390741F413825D
:1020B000128266E071E0CE010E94290505C0019000
:1020C000F081E02D309701F7112309F07894DF912A
:1020D000CF911F910895FC014231B8F49FB79078D9
:1020E000F89450E0440F551FDA01AE5BBE4FED93FC
:1020F000FC93DA01A652BE4F6D937C9321E030E051
:1021000033832283992309F0789408958C017B010D
:102110006A018FB7F8940E94F1037894E114F104F6
:1021200041F020E030E0A90160E070E0CB010E94C6
:10213000420E8FB7F8940E94490D97FB072E16F4B4
:10214000009407D077FD09D00E94B11007FC05D09C
:102150003EF4909581959F4F0895709561957F4FBE
:102160000895AA1BBB1B51E107C0AA1FBB1FA617DE
:10217000B70710F0A61BB70B881F991F5A95A9F730
:1021800080959095BC01CD010895DC012D923D9282
:102190004D925D926D927D928D929D92AD92BD9287
:1021A000CD92DD92ED92FD920D931D93CD93DD9333
:1021B000FF91EF918DB78D938EB78D938FB78D93E0
:1021C000ED93FD93882799270994DC01CB01813099
:1021D0009105811D2D903D904D905D906D907D906D
:1021E0008D909D90AD90BD90CD90DD90ED90FD9047
:1021F0000D911D91CD91DD91ED91FD910D90F89492
:10220000FEBF0FBEEDBFED91FD910994F894FFCF95
:10221000FE01FE0166011B0201050501000101002E
:1022200001010E0101010B0100050B0001040B016E
:1022300001040F010101010001050F0101050B015E
:04224000090F0F0F64
:00000001FF
