:100000000C942E000C94D5030C9441040C94AD0474
:100010000C9419050C9485050C944B000C94C00BA2
:100020000C944B000C946D0B0C94F1050C945D0634
:100030000C94C9060C9435070C94A1070C940D0878
:100040000C9479080C94E5080C9451090C94BD09A2
:100050000C94290A0C94950A0C94010B11241FBED0
:10006000CFEFD4E0DEBFCDBF11E0A0E0B1E0ECE720
:10007000FFE102C005900D92A433B107D9F724E047
:10008000A4E3B1E001C01D92A738B207E1F70E94D6
:10009000B5020C94BC0F0C9400009091C00095FF29
:1000A000FCCF8093C6000895FC012685378521503A
:1000B0003109378726870895CF92DF92EF92FF921A
:1000C0000F931F93CF93DF93EC018C859D856C017B
:1000D000CC0CDD1C880F991F880F991F880F991F62
:1000E000C80ED91E0E811F8148E8E42E42E0F42E8E
:1000F00020E030E0A90160E070E0CB010E94B00C8C
:100100008E859F856C01CC0CDD1C880F991F880F94
:10011000991F880F991FC80ED91E82E0C80ED11CE6
:100120000E811F8120E030E0A90160E070E0CB018A
:100130000E94B00C8A859B856C01CC0CDD1C880F5D
:10014000991F880F991F880F991FC80ED91E84E028
:10015000C80ED11C0E811F8120E030E0A90160E0B3
:1001600070E0CB010E94B00CDF91CF911F910F91F5
:10017000FF90EF90DF90CF900895CF92DF92EF92B3
:10018000FF920F931F93CF93DF93EC01888599859E
:10019000892B19F18C859D85892B09F065C08A858D
:1001A0009B85892B39F18E859F85892B19F5198AB5
:1001B000188A198618860C811D8136E0C32ED12C31
:1001C0004DE4E42E40E0F42E20E030E0A90160E0B0
:1001D00070E0CB010E94B00C1DC08A859B85892BE5
:1001E000D1F58C859D85892B29F08E859F85892B5E
:1001F00009F455C0C12CD12C5DEBE52E50E0F52E55
:100200008E0120E030E0A90162E17AE780E090E031
:100210000E94B00C8C859D85892BA1F48A859B85D5
:10022000892B81F4C12CD12C8DEBE82E80E0F82EA7
:100230008E0120E030E0A90162E17AE780E090E001
:100240000E94B00CDF91CF911F910F91FF90EF9022
:10025000DF90CF90089588899989863091050CF6B2
:100260000196998B888BA7CF8889998986309105CB
:100270000CF095CF0196998B888B0C811D8199E0AC
:10028000C92ED12C2DE4E22E20E0F22E20E030E029
:10029000A90160E070E0CB010E94B00CBBCF198ACD
:1002A000188A81E090E099878887E7CFCF92DF9224
:1002B000EF92FF920F931F93CF93DF93EC01672B85
:1002C00019F18E859F8501969F878E87C12CD12C31
:1002D00024E5E22E20E0F22E8E0120E030E0A9019C
:1002E0006AE572E682E090E00E94B00C8E859F8500
:1002F00001969F878E8720E030E0A9016AE572E6CB
:1003000082E090E00E94B00CC12CD12C8CE5E82E4C
:1003100080E0F82E8E0120E030E0A90160E070E07E
:10032000CB010E94B00C9DEBE92E90E0F92E20E06D
:1003300030E0A90160E070E0CB010E94B00CDF91D9
:10034000CF911F910F91FF90EF90DF90CF90089584
:10035000E1E6F0E080E8808310828FE08093E700A0
:1003600087EB8093E50087E08093E60080EC809344
:10037000E4001092C50083E38093C40088E9809371
:10038000C1000895CF92DF92EF92FF920F931F93D7
:10039000C090C600D12CFC010481158186E5E82EB1
:1003A00081E0F82E20E030E0A90160E070E0CB01B0
:1003B0000E94B00C80E090E01F910F91FF90EF90B1
:1003C000DF90CF900895FC0120812970208335961D
:1003D0009C012C5E3F4F90819F7090833596E21771
:1003E000F307C9F70895CF93DF9300D000D0CDB7BE
:1003F000DEB7DA0190ED980F9A30E8F189E0898351
:100400008FE08A838B838C8399E0662399F0FE01C9
:1004100031969E012B5F3F4F9295907F91932E17BF
:100420003F0739F090819295907F91932E173F0767
:10043000C9F799818C91982B9C9315969C9115974F
:100440008A81892B15968C9315971A969C911A97E9
:100450008B81892B1A968C931A971F969C911F97C4
:100460008C81892B1F968C930F900F900F900F907B
:10047000DF91CF910895E82FF0E0EE0FFF1FEE0F10
:10048000FF1FE85BFF4F9081998381818A8382817E
:100490008B8383818C83B9CF0F931F93CF9360FDA0
:1004A0001CC077FD30C075956795AB0144515F4F17
:1004B000FA0190819079908335969A012C5E3F4F96
:1004C0009081907F90833596E217F307C9F760E03B
:1004D000CF911F910F910C94F301AB014150510941
:1004E00057FD14C0C82F559547958A0104511F4FD9
:1004F000C8010E94E301A80161E08C2FCF911F91F8
:100500000F910C94F3016F5F7F4FCDCFAB01EACF1A
:10051000EF92FF920F931F93CF93DF93CB010AE0EB
:1005200010E0B8010E94530F7B01EC01CB0164E69F
:1005300070E00E94530FB8010E94530F862FBE0136
:10054000805D0E944C022196C701B8010E94530FA2
:10055000BE01805D0E944C0280E090E0DF91CF916F
:100560001F910F91FF90EF900895CF93DF93CDB738
:10057000DEB7A0970FB6F894DEBF0FBECDBF0E94C6
:10058000A8011E8E1D8E18A21F8E1A8E198E1C8E0B
:100590001B8E1A8219821C821B82CE0149969E8371
:1005A0008D83049698878F8381E090E09A8789876E
:1005B0001C861B861E861D86188A1F861A8A198A23
:1005C0001C8A1B8A1E8A1D8ACE010196988F8F8BEA
:1005D00048E062EC71E042960E941D0F40E050E05E
:1005E00060E070E080E090E00E94370FA0960FB6C8
:1005F000F894DEBF0FBECDBFDF91CF910895CF93AA
:10060000DF9300D000D0CDB7DEB787E292E027E0DD
:1006100033E0FC01709791838083409682179307A3
:10062000C1F71092F8021092F702E2E6F1E08FE7CC
:1006300091E0918380838CE991E0968F858FA9EB7F
:10064000B1E0B3AFA2AF1D921C92FA83E983E3E657
:10065000F3E0FC83EB8389819A8106960E947B0FED
:100660008B819C81E981FA81978B868B918F808F1A
:1006700082EA9EE0948F838F158214827D96FA839E
:10068000E983EB81FC81E05AFF4FFC83EB83898196
:100690009A81865D9140F9F6EAEFF1E011821082CD
:1006A0001582148213821282E1E6F0E080E88083F2
:1006B0001082109285001092840084E08093810063
:1006C00081E080936F000F900F900F900F90DF915B
:1006D000CF910895CF93DF9300D0CDB7DEB79A8343
:1006E0008983809100019091010106960E947B0F01
:1006F000892B29F00F900F90DF91CF910895898178
:100700009A81909301018093000161E070E0069668
:100710000E949B0F0F931F93CF93DF93E0913C01B7
:10072000F0913D013097F1F0809104019091050125
:100730000097C1F0C0910201D0910301AA81BB8151
:100740001097A9F0468157816085718516960D91A5
:100750001D912D913C911997401B510B620B730B0E
:1007600077FD05C0DF91CF911F910F910895FC0196
:10077000208131813093050120930401D183C0830E
:100780009093030180930201DF91CF911F910F910C
:100790000C946A038FEF8093EC008093ED008093BC
:1007A000EE0081E083BF8895FDCF1F920F920FB6B8
:1007B0000F9211242F933F934F935F936F937F93E7
:1007C0008F939F93AF93BF93EF93FF932091340147
:1007D000309135014091840050918500C901032E6C
:1007E000000CAA0BBB0BDC019927882760E070E0A6
:1007F000842B952BA62BB72B809336019093370132
:10080000A0933801B0933901B09B1BC04091840084
:1008100050918500C9010196092E000CAA0BBB0B53
:10082000DC019927882760E070E0842B952BA62BAC
:10083000B72B8093360190933701A0933801B09382
:100840003901E091D601F091D701309739F060E09D
:1008500070E080913E0190913F0109950E948A03CA
:10086000FF91EF91BF91AF919F918F917F916F9188
:100870005F914F913F912F910F900FBE0F901F905E
:1008800018951F920F920FB60F9211242F933F933A
:100890004F935F936F937F938F939F93AF93BF9388
:1008A000EF93FF9320913401309135014091840002
:1008B00050918500C901032E000CAA0BBB0BDC0173
:1008C0009927882760E070E0842B952BA62BB72B07
:1008D0008093360190933701A0933801B09339018A
:1008E000B09B1BC04091840050918500C9010196C6
:1008F000092E000CAA0BBB0BDC019927882760E0AE
:1009000070E0842B952BA62BB72B80933601909308
:100910003701A0933801B0933901E091D801F091EB
:10092000D901309739F061E070E0809140019091F9
:10093000410109950E948A03FF91EF91BF91AF9108
:100940009F918F917F916F915F914F913F912F91E7
:100950000F900FBE0F901F9018951F920F920FB619
:100960000F9211242F933F934F935F936F937F9335
:100970008F939F93AF93BF93EF93FF932091340195
:10098000309135014091840050918500C901032EBA
:10099000000CAA0BBB0BDC019927882760E070E0F4
:1009A000842B952BA62BB72B809336019093370180
:1009B000A0933801B0933901B09B1BC040918400D3
:1009C00050918500C9010196092E000CAA0BBB0BA2
:1009D000DC019927882760E070E0842B952BA62BFB
:1009E000B72B8093360190933701A0933801B093D1
:1009F0003901E091DA01F091DB01309739F062E0E2
:100A000070E0809142019091430109950E948A0310
:100A1000FF91EF91BF91AF919F918F917F916F91D6
:100A20005F914F913F912F910F900FBE0F901F90AC
:100A300018951F920F920FB60F9211242F933F9388
:100A40004F935F936F937F938F939F93AF93BF93D6
:100A5000EF93FF9320913401309135014091840050
:100A600050918500C901032E000CAA0BBB0BDC01C1
:100A70009927882760E070E0842B952BA62BB72B55
:100A80008093360190933701A0933801B0933901D8
:100A9000B09B1BC04091840050918500C901019614
:100AA000092E000CAA0BBB0BDC019927882760E0FC
:100AB00070E0842B952BA62BB72B80933601909357
:100AC0003701A0933801B0933901E091DC01F09136
:100AD000DD01309739F063E070E08091440190913E
:100AE000450109950E948A03FF91EF91BF91AF9153
:100AF0009F918F917F916F915F914F913F912F9136
:100B00000F900FBE0F901F9018951F920F920FB667
:100B10000F9211242F933F934F935F936F937F9383
:100B20008F939F93AF93BF93EF93FF9320913401E3
:100B3000309135014091840050918500C901032E08
:100B4000000CAA0BBB0BDC019927882760E070E042
:100B5000842B952BA62BB72B8093360190933701CE
:100B6000A0933801B0933901B09B1BC04091840021
:100B700050918500C9010196092E000CAA0BBB0BF0
:100B8000DC019927882760E070E0842B952BA62B49
:100B9000B72B8093360190933701A0933801B0931F
:100BA0003901E091DE01F091DF01309739F064E026
:100BB00070E0809146019091470109950E948A0357
:100BC000FF91EF91BF91AF919F918F917F916F9125
:100BD0005F914F913F912F910F900FBE0F901F90FB
:100BE00018951F920F920FB60F9211242F933F93D7
:100BF0004F935F936F937F938F939F93AF93BF9325
:100C0000EF93FF932091340130913501409184009E
:100C100050918500C901032E000CAA0BBB0BDC010F
:100C20009927882760E070E0842B952BA62BB72BA3
:100C30008093360190933701A0933801B093390126
:100C4000B09B1BC04091840050918500C901019662
:100C5000092E000CAA0BBB0BDC019927882760E04A
:100C600070E0842B952BA62BB72B809336019093A5
:100C70003701A0933801B0933901E091E001F09180
:100C8000E101309739F065E070E080914801909182
:100C9000490109950E948A03FF91EF91BF91AF919D
:100CA0009F918F917F916F915F914F913F912F9184
:100CB0000F900FBE0F901F9018951F920F920FB6B6
:100CC0000F9211242F933F934F935F936F937F93D2
:100CD0008F939F93AF93BF93EF93FF932091340132
:100CE000309135014091840050918500C901032E57
:100CF000000CAA0BBB0BDC019927882760E070E091
:100D0000842B952BA62BB72B80933601909337011C
:100D1000A0933801B0933901B09B1BC0409184006F
:100D200050918500C9010196092E000CAA0BBB0B3E
:100D3000DC019927882760E070E0842B952BA62B97
:100D4000B72B8093360190933701A0933801B0936D
:100D50003901E091E201F091E301309739F066E06A
:100D600070E080914A0190914B0109950E948A039D
:100D7000FF91EF91BF91AF919F918F917F916F9173
:100D80005F914F913F912F910F900FBE0F901F9049
:100D900018951F920F920FB60F9211242F933F9325
:100DA0004F935F936F937F938F939F93AF93BF9373
:100DB000EF93FF93209134013091350140918400ED
:100DC00050918500C901032E000CAA0BBB0BDC015E
:100DD0009927882760E070E0842B952BA62BB72BF2
:100DE0008093360190933701A0933801B093390175
:100DF000B09B1BC04091840050918500C9010196B1
:100E0000092E000CAA0BBB0BDC019927882760E098
:100E100070E0842B952BA62BB72B809336019093F3
:100E20003701A0933801B0933901E091E401F091CA
:100E3000E501309739F067E070E080914C019091C6
:100E40004D0109950E948A03FF91EF91BF91AF91E7
:100E50009F918F917F916F915F914F913F912F91D2
:100E60000F900FBE0F901F9018951F920F920FB604
:100E70000F9211242F933F934F935F936F937F9320
:100E80008F939F93AF93BF93EF93FF932091340180
:100E9000309135014091840050918500C901032EA5
:100EA000000CAA0BBB0BDC019927882760E070E0DF
:100EB000842B952BA62BB72B80933601909337016B
:100EC000A0933801B0933901B09B1BC040918400BE
:100ED00050918500C9010196092E000CAA0BBB0B8D
:100EE000DC019927882760E070E0842B952BA62BE6
:100EF000B72B8093360190933701A0933801B093BC
:100F00003901E091E601F091E701309739F068E0AE
:100F100070E080914E0190914F0109950E948A03E3
:100F2000FF91EF91BF91AF919F918F917F916F91C1
:100F30005F914F913F912F910F900FBE0F901F9097
:100F400018951F920F920FB60F9211242F933F9373
:100F50004F935F936F937F938F939F93AF93BF93C1
:100F6000EF93FF932091340130913501409184003B
:100F700050918500C901032E000CAA0BBB0BDC01AC
:100F80009927882760E070E0842B952BA62BB72B40
:100F90008093360190933701A0933801B0933901C3
:100FA000B09B1BC04091840050918500C9010196FF
:100FB000092E000CAA0BBB0BDC019927882760E0E7
:100FC00070E0842B952BA62BB72B80933601909342
:100FD0003701A0933801B0933901E091E801F09115
:100FE000E901309739F069E070E08091500190910B
:100FF000510109950E948A03FF91EF91BF91AF9132
:101000009F918F917F916F915F914F913F912F9120
:101010000F900FBE0F901F9018951F920F920FB652
:101020000F9211242F933F934F935F936F937F936E
:101030008F939F93AF93BF93EF93FF9320913401CE
:10104000309135014091840050918500C901032EF3
:10105000000CAA0BBB0BDC019927882760E070E02D
:10106000842B952BA62BB72B8093360190933701B9
:10107000A0933801B0933901B09B1BC0409184000C
:1010800050918500C9010196092E000CAA0BBB0BDB
:10109000DC019927882760E070E0842B952BA62B34
:1010A000B72B8093360190933701A0933801B0930A
:1010B0003901E091EA01F091EB01309739F06AE0F3
:1010C00070E0809152019091530109950E948A032A
:1010D000FF91EF91BF91AF919F918F917F916F9110
:1010E0005F914F913F912F910F900FBE0F901F90E6
:1010F00018951F920F920FB60F9211242F933F93C2
:101100004F935F936F937F938F939F93AF93BF930F
:10111000EF93FF9320913401309135014091840089
:1011200050918500C901032E000CAA0BBB0BDC01FA
:101130009927882760E070E0842B952BA62BB72B8E
:101140008093360190933701A0933801B093390111
:10115000B09B1BC04091840050918500C90101964D
:10116000092E000CAA0BBB0BDC019927882760E035
:1011700070E0842B952BA62BB72B80933601909390
:101180003701A0933801B0933901E091EC01F0915F
:10119000ED01309739F06BE070E08091540190914F
:1011A000550109950E948A03FF91EF91BF91AF917C
:1011B0009F918F917F916F915F914F913F912F916F
:1011C0000F900FBE0F901F9018951F920F920FB6A1
:1011D0000F9211242F933F934F935F936F937F93BD
:1011E0008F939F93AF93BF93EF93FF93209134011D
:1011F000309135014091840050918500C901032E42
:10120000000CAA0BBB0BDC019927882760E070E07B
:10121000842B952BA62BB72B809336019093370107
:10122000A0933801B0933901B09B1BC0409184005A
:1012300050918500C9010196092E000CAA0BBB0B29
:10124000DC019927882760E070E0842B952BA62B82
:10125000B72B8093360190933701A0933801B09358
:101260003901E091EE01F091EF01309739F06CE037
:1012700070E0809156019091570109950E948A0370
:10128000FF91EF91BF91AF919F918F917F916F915E
:101290005F914F913F912F910F900FBE0F901F9034
:1012A00018951F920F920FB60F9211242F933F9310
:1012B0004F935F936F937F938F939F93AF93BF935E
:1012C000EF93FF93209134013091350140918400D8
:1012D00050918500C901032E000CAA0BBB0BDC0149
:1012E0009927882760E070E0842B952BA62BB72BDD
:1012F0008093360190933701A0933801B093390160
:10130000B09B1BC04091840050918500C90101969B
:10131000092E000CAA0BBB0BDC019927882760E083
:1013200070E0842B952BA62BB72B809336019093DE
:101330003701A0933801B0933901E091F001F091A9
:10134000F101309739F06DE070E080915801909193
:10135000590109950E948A03FF91EF91BF91AF91C6
:101360009F918F917F916F915F914F913F912F91BD
:101370000F900FBE0F901F9018951F920F920FB6EF
:101380000F9211242F933F934F935F936F937F930B
:101390008F939F93AF93BF93EF93FF93209134016B
:1013A000309135014091840050918500C901032E90
:1013B000000CAA0BBB0BDC019927882760E070E0CA
:1013C000842B952BA62BB72B809336019093370156
:1013D000A0933801B0933901B09B1BC040918400A9
:1013E00050918500C9010196092E000CAA0BBB0B78
:1013F000DC019927882760E070E0842B952BA62BD1
:10140000B72B8093360190933701A0933801B093A6
:101410003901E091F201F091F301309739F06EE07B
:1014200070E080915A0190915B0109950E948A03B6
:10143000FF91EF91BF91AF919F918F917F916F91AC
:101440005F914F913F912F910F900FBE0F901F9082
:1014500018951F920F920FB60F9211242F933F935E
:101460004F935F936F937F938F939F93AF93BF93AC
:10147000EF93FF9320913401309135014091840026
:1014800050918500C901032E000CAA0BBB0BDC0197
:101490009927882760E070E0842B952BA62BB72B2B
:1014A0008093360190933701A0933801B0933901AE
:1014B000B09B1BC04091840050918500C9010196EA
:1014C000092E000CAA0BBB0BDC019927882760E0D2
:1014D00070E0842B952BA62BB72B8093360190932D
:1014E0003701A0933801B0933901E091F401F091F4
:1014F000F501309739F06FE070E080915C019091D8
:101500005D0109950E948A03FF91EF91BF91AF9110
:101510009F918F917F916F915F914F913F912F910B
:101520000F900FBE0F901F9018951F920F920FB63D
:101530000F9211242F933F934F935F936F937F9359
:101540008F939F93AF93BF93EF93FF9320913401B9
:10155000309135014091840050918500C901032EDE
:10156000000CAA0BBB0BDC019927882760E070E018
:10157000842B952BA62BB72B8093360190933701A4
:10158000A0933801B0933901B09B1BC040918400F7
:1015900050918500C9010196092E000CAA0BBB0BC6
:1015A000DC019927882760E070E0842B952BA62B1F
:1015B000B72B8093360190933701A0933801B093F5
:1015C0003901E091F601F091F701309739F060E1CF
:1015D00070E080915E0190915F0109950E948A03FD
:1015E000FF91EF91BF91AF919F918F917F916F91FB
:1015F0005F914F913F912F910F900FBE0F901F90D1
:1016000018951F920F920FB60F9211242F933F93AC
:101610004F935F936F937F938F939F93AF93BF93FA
:10162000EF93FF9320913401309135014091840074
:1016300050918500C901032E000CAA0BBB0BDC01E5
:101640009927882760E070E0842B952BA62BB72B79
:101650008093360190933701A0933801B0933901FC
:10166000B09B1BC04091840050918500C901019638
:10167000092E000CAA0BBB0BDC019927882760E020
:1016800070E0842B952BA62BB72B8093360190937B
:101690003701A0933801B0933901E091F801F0913E
:1016A000F901309739F061E170E08091600190912B
:1016B000610109950E948A03FF91EF91BF91AF915B
:1016C0009F918F917F916F915F914F913F912F915A
:1016D0000F900FBE0F901F9018951F920F920FB68C
:1016E0000F9211242F933F934F935F936F937F93A8
:1016F0008F939F93EF93FF938091340190913501E5
:1017000001969093350180933401E0913A01F09174
:101710003B01309739F0428153816481758186178E
:101720009707A1F080916F008D7F80936F00FF91EC
:10173000EF919F918F917F916F915F914F913F9129
:101740002F910F900FBE0F901F901895CA012091F6
:10175000840030918500421B530B4130510551F0FC
:10176000909389008093880080916F0082608093BD
:101770006F00DDCF80918400909185000196F0CFBD
:101780001F920F920FB60F9211248F929F92AF92D9
:10179000BF92CF92DF92EF92FF920F931F932F93FE
:1017A0003F934F935F936F937F938F939F93AF93E9
:1017B000BF93CF93DF93EF93FF93E0903401F090CA
:1017C00035018091840090918500B09998C04701BF
:1017D0000F2C000CAA08BB08540199248824A0E00F
:1017E000B0E0882A992AAA2ABB2AC0913A01D0914E
:1017F0003B0180913C0190913D01209709F43FC04D
:101800004A815B816C817D818A019B0108191909DC
:101810002A093B0910161106120613060CF440C0E3
:10182000D880C9800097B9F10E811F81288539853C
:10183000FC014681578160857185041715072607CD
:1018400037074CF1DC010AC04681578160857185FC
:101850000417150726073707DCF0DF01ED91FC912F
:101860001197309789F719821882CD93DC93382F1E
:10187000292FCD2DDC2D832F922F209709F6109242
:101880003B0110923A0190933D0180933C0113C0BB
:10189000F983E883EACF998388833C2F2D2FE9CF02
:1018A000D0933B01C0933A0190933D0180933C015A
:1018B000E616F706D9F180916F008D7F80936F0057
:1018C0000E948A03FF91EF91DF91CF91BF91AF9179
:1018D0009F918F917F916F915F914F913F912F9148
:1018E0001F910F91FF90EF90DF90CF90BF90AF903E
:1018F0009F908F900F900FBE0F901F901895209182
:1019000084003091850047018FEF881A980A092CCE
:10191000000CAA08BB08D401992788274901A12CEB
:10192000B12C882A992AAA2ABB2A5FCFCA01209102
:10193000840030918500421B530B4130510551F01A
:10194000909389008093880080916F0082608093DB
:101950006F00B6CF80918400909185000196F0CF02
:101960003F924F925F926F927F928F929F92AF922F
:10197000BF92CF92DF92EF92FF920F931F93CF937C
:10198000DF93EFB7E0783E2EF894C0910601D09136
:101990000701209709F452C1E881F981F09307010A
:1019A000E09306011B870A87FD86EC86DF86CE86DC
:1019B000332009F46FC0E0910001F0910101028031
:1019C000F381E02DC280D380E480F580C60ED71E5F
:1019D000E81EF91ECA82DB82EC82FD821216130613
:1019E000140615060CF0F8C0DA01C9018C019D013E
:1019F0000C0D1D1D2E1D3F1D0E831F83288739874B
:101A0000809134019091350160918400709185003E
:101A1000B09949C02C01092E000C660877085201C4
:101A2000992488242B01612C712C482859286A2874
:101A30007B28B701A60144195509660977091416D0
:101A40001506160617060CF068C0A0913A01B09171
:101A50003B01109709F4DCC012960D911D912D9158
:101A60003C911597C016D106E206F3065CF4D0C08F
:101A70004281538164817581C416D506E606F70656
:101A80004CF1DF01ED91FC911197309789F71982A4
:101A9000188222C0C0903601D0903701E090380102
:101AA000F090390193CFE0918400F09185002C01F2
:101AB0004FEF441A540A052C000C66087708B2014F
:101AC000552744272F01612C712C442A552A662A58
:101AD000772AAFCFF983E883CD93DC9382179307FE
:101AE00009F47FC080916F008D7F80936F00332059
:101AF00009F07894CE01DF91CF911F910F91FF9063
:101B0000EF90DF90CF90BF90AF909F908F907F909D
:101B10006F905F904F903F900895A0913C01B091DD
:101B20003D01109709F483C01696CD90DD90ED909D
:101B3000FC9019970C151D052E053F0564F477C020
:101B4000C680D780E084F1840C151D052E053F0565
:101B50000CF45BC0DF01ED91FC911197309781F798
:101B600019821882CD93DC93332021F280910401F5
:101B700090910501009709F4BCCFE0910201F0912A
:101B8000030120913C0130913D0102811381D90173
:101B900016964D915D916D917C911997D80116968D
:101BA0000D911D912D913C911997401B510B620B8A
:101BB000730B77FF9ECFDC012D913C9111973093F1
:101BC000050120930401ED93FC939093030180930E
:101BD00002010E946A038DCF8FEF9FEFAFEFBFE747
:101BE00005CFC8014091840050918500041B150B5E
:101BF00001301105B1F090938900809388008091A5
:101C00006F00826080936F0072CFF983E883AACF60
:101C1000B983A883D0933B01C0933A019701860111
:101C20005DCF80918400909185000196E4CFB983C7
:101C3000A883D0933D01C0933C0196CF0E94CA0374
:101C4000CF92DF92EF92FF920F931F93CF93DF9388
:101C5000EC017B016A011FB71078F894A881B98163
:101C6000109719F462C0A081B1811496ED91FC9196
:101C700015973097C1F720910001309101012A1783
:101C80003B0709F44CC01123A1F18A819B81009785
:101C900019F0FC01158214823B832A83F901D58354
:101CA000C483CD010E946A03E0910001F09101011B
:101CB00082819381892B09F441C0F983E8838A8169
:101CC0009B81019709F07894B601CE01F70109953F
:101CD000F82E092F8FB7F894198218828A819B8178
:101CE00082309105A0F4112379F078948F2D902FF4
:101CF00002C08FEF9FEFDF91CF911F910F91FF9067
:101D0000EF90DF90CF9008958F2D902FF4CF1B820E
:101D10001A82FC01158214820E946A03E4CF112307
:101D200041F378948FEF9FEFE6CF8091000190917F
:101D3000010199838883112339F2C1CF789480E01F
:101D400090E0D9CFC0913C01D0913D01E0910001DC
:101D5000F0910101209709F46EC0888199819093D8
:101D60003D0180933C01D383C28378944E855F8587
:101D70006C857D858A859B850E94200E8FB7F8949F
:101D8000809106019091070199838883D093070180
:101D9000C0930601E0900201F0900301F701A081D9
:101DA000B18112968D919C911397C0913C01D09175
:101DB0003D012097A9F0009749F24E815F81688527
:101DC0007985FC010681178120853185401B510BE7
:101DD000620B730B14161506160617060CF0B6CF19
:101DE000B0930301A0930201809104019091050139
:101DF000F70191838083F0920501E092040114962B
:101E0000ED91FC911597309741F0A081B181149626
:101E1000ED91FC9115973097C1F7CD010E946A03AF
:101E2000C0913C01D0913D01E0910001F091010190
:101E3000209709F092CF0E94CA034231B8F42FB71D
:101E4000F89450E0440F551FFA01E25CFE4F918375
:101E50008083FA01EA52FE4F7183608341E050E0D3
:101E6000FC015383428327FF01C0789408958C01BD
:101E70007B016A018FB7F8940E94FF027894E11405
:101E8000F10441F020E030E0A90160E070E0CB0116
:101E90000E94B00C8FB7F8940E948A03789481E076
:101EA00083BF8895FDCF97FB072E16F4009407D0CB
:101EB00077FD09D00E94670F07FC05D03EF490958E
:101EC00081959F4F0895709561957F4F0895AA1B46
:101ED000BB1B51E107C0AA1FBB1FA617B70710F015
:101EE000A61BB70B881F991F5A95A9F78095909547
:101EF000BC01CD010895DC012D923D924D925D9281
:101F00006D927D928D929D92AD92BD92CD92DD9219
:101F1000ED92FD920D931D93CD93DD93FF91EF9183
:101F20008DB78D938EB78D938FB78D93ED93FD9372
:101F3000882799270994DC01CB0181309105811D07
:101F40002D903D904D905D906D907D908D909D90E9
:101F5000AD90BD90CD90DD90ED90FD900D911D91D7
:101F6000CD91DD91ED91FD910D90F894FEBF0FBEE6
:0C1F7000EDBFED91FD910994F894FFCFB6
:101F7C00FA01FA01620117020105050100010100D5
:101F8C0001010E0101010B0100050B0001040B0105
:101F9C0001040F010101010001050F0101050B01F5
:041FAC00090F0F0FFB
:00000001FF
